:020000040800F2
:10000000285B0020750200081F0900083908000855
:100010001D0900083D070008650E000800000000EB
:10002000000000000000000000000000DD010008EA
:100030003F07000800000000210200081D0B000817
:100040008F0200088F0200088F0200088F0200084C
:100050008F0200088F0200088F0200088F0200083C
:100060008F0200088F0200088F0200088F0200082C
:100070008F0200088F0200088F0200088F0200081C
:100080008F0200088F0200088F0200088F0200080C
:100090008F0200088F0200088F0200088F020008FC
:1000A0008F0200088F0200088F0200088F020008EC
:1000B0008F0200088F0200088F0200088F020008DC
:1000C0008F0200088F0200088F0200088F020008CC
:1000D0008F020008C90C00088F0200088F02000878
:1000E0008F0200088F0200088F0200088F020008AC
:1000F0008F0200088F0200088F0200088F0200089C
:100100008F0200088F0200088F0200088F0200088B
:100110008F0200088F0200088F0200088F0200087B
:100120008F0200088F0200088F0200088F0200086B
:1001300000F002F800F042F80AA090E8000C8244B7
:100140008344AAF10107DA4501D100F037F8AFF294
:10015000090EBAE80F0013F0010F18BFFB1A43F0A5
:1001600001031847FC2A00001C2B0000103A24BF92
:1001700078C878C1FAD8520724BF30C830C144BF0C
:1001800004680C607047000000230024002500264E
:10019000103A28BF78C1FBD8520728BF30C148BFEA
:1001A0000B607047642900F0F180732900F0FE8134
:1001B000002070471FB51FBD10B510BD00F08BFAB1
:1001C0001146FFF7F7FF00F0A5FE00F0A9FA03B40F
:1001D000FFF7F2FF03BC00F046FE0000224B196857
:1001E0000868B0E8F00F80F30988BFF36F8F4FF015
:1001F000000080F311884EF00D0E704700000000E3
:1002000006480068006880F3088862B661B6BFF3EC
:100210004F8FBFF36F8F00DF00BF00BF08ED00E01E
:10022000EFF30980BFF36F8F0F4B1A6820E9F00FCF
:10023000106008B54FF0500080F31188BFF34F8F66
:10024000BFF36F8F01F02AFF4FF0000080F3118899
:10025000BDE8084019680868B0E8F00F80F3098825
:10026000BFF36F8F704700BF40000020EFF30580A1
:10027000704700000948804709480047FEE7FEE74D
:10028000FEE7FEE7FEE7FEE7FEE7FEE7FEE7FEE746
:1002900004480549054A064B70470000310B000829
:1002A0003101000828550020285B00202857002035
:1002B00028570020704700000FB4044910B503AA66
:1002C000029800F077F910BC5DF814FB28000020BC
:1002D0002DE9F0410E460446002020622046E168E8
:1002E000884730B3252805D0D4E901219047206AFA
:1002F000401CF2E7E168204600278847050018D037
:10030000A5F14100192802D820354FF40067324684
:10031000294620462760FFF745FF40B1012804D059
:10032000F61D26F007060836D8E7361DD6E728461C
:10033000DAE7206ABDE8F08170B50C460546012A6F
:1003400005D02878800600D5EA69002302E0012361
:1003500005E05B1C934202D2E05C0028F9D1A86959
:10036000E618C01AA861286A184428622846AFF324
:10037000008004E0D5E9012114F8010B9047B44254
:10038000F8D32846AFF3008070BD00002DE9F0419E
:100390000646002410687529314616A510D0AFF323
:1003A0000080002802DA404213A507E031688A077E
:1003B00001D512A502E0490704D511A5012401E0E9
:1003C000AFF3008000210A2206F1240709E0B0FB08
:1003D000F2FCB0FBF2F302FB1C00303078541846FC
:1003E000491C0028F3D123462A463046BDE8F04197
:1003F00000F059B8000000002D0000002B000000A4
:1004000020000000032A40F2308010F0030C00F0BE
:10041000158011F8013BBCF1020F624498BF11F83E
:1004200001CB00F8013B38BF11F8013BA2F10402F7
:1004300098BF00F801CB38BF00F8013B11F003036F
:1004400000F0CA80083AC0F0088051F8043B083A2E
:1004500051F804CBA0E80810F5E7121D5CBF51F875
:10046000043B40F8043BAFF30080D20724BF11F8EF
:10047000013B11F801CB48BF11F8012B24BF00F854
:10048000013B00F801CB48BF00F8012B704702F098
:10049000FF0343EA032242EA024200F0D1B8704768
:1004A0007047704770472DE9F0470D4699469246D0
:1004B000044600F124080168880604D5E06921F0AB
:1004C0001001216000E00120A84201DD471B00E08F
:1004D0000027A1697A1902EB0900081AA0612078A7
:1004E000C00602D42046AFF30080002608E0D4E91D
:1004F00001211AF806009047206A401C761C2062F1
:100500004E45F4DB2078C0060AD52046AFF30080C4
:1005100006E0D4E9012130209047206A401C206287
:10052000381EA7F10107F4DC07E0D4E9012118F82F
:1005300005009047206A401C2062281EA5F1010595
:10054000F3DC2046AFF300802078000602D50220BD
:10055000BDE8F0870120FBE701694A1C02610878C9
:10056000704700B58FB0CDE90131002105910549F3
:100570007944CDE9031011466846FFF7A9FE0FB094
:1005800000BD0000E5FFFFFF10B5436913B1AFF3F5
:10059000008001E0FFF7D0FE012010BD127800F1CD
:1005A00024010A7000224A700122EDE711684FF021
:1005B000FF32E9E7074B70B50D467B44FFF7D1FFEB
:1005C0000446284600F05CF810B14FF0FF3070BDD3
:1005D000204670BDF308000010B5203AC0F00B8033
:1005E000B1E81850203AA0E81850B1E81850A0E837
:1005F0001850BFF4F5AF5FEA027C24BFB1E8185091
:10060000A0E8185044BF18C918C0BDE810405FEA00
:10061000827C24BF51F8043B40F8043B08BF70477C
:10062000D20728BF31F8023B48BF11F8012B28BF81
:1006300020F8023B48BF00F8012B70474FF0000242
:100640000429C0F0128010F0030C00F01F80CCF1E0
:10065000040CBCF1020F18BF00F8012BA8BF20F852
:10066000022BA1EB0C0100F011B85FEAC17C24BFA2
:1006700000F8012B00F8012B48BF00F8012B704750
:10068000007B00F0800070474FF0000200B5134679
:1006900094469646203922BFA0E80C50A0E80C50A2
:1006A000B1F12001BFF4F7AF090728BFA0E80C5053
:1006B00048BF0CC05DF804EB890028BF40F8042B4C
:1006C00008BF704748BF20F8022B11F0804F18BFB9
:1006D00000F8012B7047754600F02CF8AE46050077
:1006E0006946534620F00700854618B020B5FFF74D
:1006F000CFFDBDE820404FF000064FF000074FF05F
:1007000000084FF0000B21F00701AC46ACE8C0092F
:10071000ACE8C009ACE8C009ACE8C0098D46704738
:1007200010B50446AFF300802046BDE81040FFF747
:100730004EBD000000487047C8540020FEE77047D7
:10074000F0B5CC78002204F00F03E40601D58C78D4
:1007500023430C784FF00F0C14F0FF0F4FF0010EF5
:100760001BD005680E880EFA02F42640A64210D16E
:1007700096000CFA06F725EA070703FA06F5CE7885
:100780003D43282E02D0482E02D002E0446100E012
:100790000461521C082AE5D305600A88FF2A1CD987
:1007A0004468002202F108060EFA06F50E882E4073
:1007B000AE420ED196000CFA06F7BC4303FA06F7D8
:1007C000CE783C43282E00D14561CE78482E00D10A
:1007D0000561521C082AE5D34460F0BDF0B5144C05
:1007E000002801DAE36900E06368450D2E0185B257
:1007F000C0F30157B540C0F30342032F05D0C60232
:100800000AD503269640B34307E023F0706263687D
:1008100023F07063636002E0AB4343F0706201B1A8
:100820002A43002801DAE261F0BD6260F0BD0000F9
:100830000000014001617047FEE7000038B501216A
:10084000482000F0B5F82024ADF8004010208DF8C5
:10085000030003200B4D8DF8020069462846FFF780
:100860006FFF20212846FFF7E5FFADF80040064C5A
:1008700069462046FFF764FF20212046FFF7DAFF94
:1008800038BD0000000C01400018014030B50D4695
:10089000044689B00121022000F07EF801210920E0
:1008A00000F086F801211A48FFF798FF2022ADF8E2
:1008B0001C2018228DF81F2003208DF81E0007A988
:1008C0001448FFF73DFFADF80440ADF80050002498
:1008D000114DADF80640ADF802406946284600F0DB
:1008E000A5F97021ADF80C100120ADF80E00ADF89F
:1008F000144003A9284600F04DF90821284600F0CD
:1009000089F90121284600F03BF909B030BD00000B
:1009100000081A00000C014000040040FEE7704788
:1009200030B50F23C27801780125F2B1144A12685C
:1009300001F1E02102F4E062C2F5E062120AC2F1C4
:100940000404D3404278A24084781C40144322011E
:1009500081F80024007800F01F018D4040098000DC
:1009600000F1E020C0F8005130BD01F01F008540CB
:100970004809800000F1E020C0F8805130BD00003F
:100980000CED00E00249084302490860704700008E
:100990000000FA050CED00E0044A0029D16901D0FD
:1009A000014300E08143D161704700000010024024
:1009B000044A0029916901D0014300E0814391611B
:1009C000704700000010024030B5204A5168204BAB
:1009D00011F00C0103D0042901D0082901D00360D3
:1009E00012E05168536801F470114FF0020413F4DF
:1009F000803F04EB914102D053689B0301D5154B16
:100A000000E0134B5943016051680F2303EA1111B1
:100A1000114B5C5C0168E14041605468072505EAC0
:100A200014241C5D21FA04F48460546805EAD4247B
:100A30001B5DD940C1605268032303EA9232064B22
:100A40001B1F9A5CB1FBF2F1016130BD0010024046
:100A500000127A0000093D00300000200CB5002291
:100A6000264800920192016841F4803101604FF400
:100A7000A063016801F4003101910099491C0091C3
:100A8000019911B900999942F3D10168890333D5CD
:100A9000012101911A490A6842F010020A600A68AD
:100AA00022F003020A600A6842F002020A6041680A
:100AB000416041684160416841F480614160416842
:100AC00021F47C114160416841F4E8114160016802
:100AD00041F08071016001688901FCD5416821F015
:100AE00003014160416841F0020141604168C1F386
:100AF00081010229FAD10CBD01920CBD0010024007
:100B0000002002404FF0E0210428086903D020F0C3
:100B100004000861704740F00400FAE710B501F0E6
:100B200043FE012803D0BDE8104001F031BB10BDE9
:100B30000F4810B5016841F00101016041680D4A9C
:100B40001140416001680C4A11400160016821F4C4
:100B500080210160416821F4FE0141604FF41F01D2
:100B60008160FFF77BFF05494FF00060086010BD12
:100B7000001002400000FFF8FFFFF6FE08ED00E065
:100B80000029018802D041F0010101E021F00101BA
:100B90000180704770B5028C22F010020284028C32
:100BA0008388048B0D8824F4E6464FF6FF7404EA2C
:100BB000052535430E8922F0200204EA0616164365
:100BC0004A8804EA02123243104EB04202D0104E5C
:100BD000B04215D122F080064A8923F4406304EA2A
:100BE0000212324322F040068A8804EA021232439B
:100BF0008E8904EA86061E43CB8904EA83033343C5
:100C000083800583C9880187028470BD002C014060
:100C100000340140028B4FF6FF7322F4006203EAB6
:100C200001211143018370470187704730B5028865
:100C30001B4C1C4DA0420DD0A8420BD0B0F1804FF0
:100C400008D0194B984205D0184B984202D0184B47
:100C5000984203D122F070034A881A43154B9842F8
:100C600006D0154B984203D022F44073CA881A4329
:100C700002808A8882850A880285A0420AD0A8421A
:100C800008D00E4A904205D00D4A904202D00D4A3B
:100C9000904201D1097A01860121818230BD000094
:100CA000002C0140003401400004004000080040D6
:100CB000000C0040001000400014004000400140C3
:100CC000004401400048014070B5154C40F22551E8
:100CD000204600F035F800280ED0204600F0BEF87F
:100CE000104AC1B21088030406D444044FF0000334
:100CF00006D50A2901D0138070BD40F400400DE0F4
:100D00000D2909D0C0F30D04074D401C80B22955B0
:100D10001080C728EFD870BD40F48040108070BDAF
:100D20000038014024000020B400002000298189FF
:100D300002D041F4005101E021F40051818170475B
:100D400070B501F01F0501260024C1F3421306FA15
:100D500005F2012B0FD0022B0FD0838A4FEA11210D
:100D60000088134206FA01F600EA060001D000B13D
:100D70000124204670BD8389F0E7038AEEE710B5B1
:100D8000C1F3421301F01F040121A140012B07D040
:100D9000022B07D01430002A026805D00A4304E071
:100DA0000C30F8E71030F6E78A43026010BD00000F
:100DB00030B50446008A85B00D464CF6FF710840F8
:100DC000E98801432182A0894EF6F3110840A988E1
:100DD0002A8911436A8902431143A181A08A4FF6EF
:100DE000FF410840A9890143A1826846FFF7ECFD55
:100DF0001948844201D1039800E00298A1890904AE
:100E000000EBC00101EB0010296801D5490000E0AA
:100E10008900B0FBF1F06422B0FBF2F109010B098B
:100E20006FF018056B4300EB8300A3891D044FF09E
:100E3000320306D503EBC000B0FBF2F000F0070070
:100E400005E003EB0010B0FBF2F000F00F000843E8
:100E5000208105B030BD0000003801408088C0F31B
:100E600008007047FEE7704710B50420FFF74AFE00
:100E70000C480D490D4A0068B0FBF1F3B0FBF1F1ED
:100E80004FF47A7041431370012050804FF0E020FE
:100E9000026942F0020202614161016941F001010F
:100EA000016110BD0C00002040420F002000002016
:100EB00004490A885206FCD5024AC1B2121D1180AB
:100EC0007047000000380140054C4FF4FA75D4F823
:100ED0009401C143C4F89411284600F02DFFF6E7B1
:100EE0000080214200240A4F01254FF4C876641C7B
:100EF00000E0641EA4B2B44200D9002504B9012563
:100F000021463846FFF790FE002DF0D1F1E70000B2
:100F1000000400401CB54FF44070FFF733FDFFF7AD
:100F2000A3FF4FF4E13000F02DFDFFF787FC4721D0
:100F300040F2E730FFF7AAFC06490120CDE90001A5
:100F40000023802204A1074801F002FC01F054F8BC
:100F500000201CBD0000002073746172745F746116
:100F6000736B00001D1900082DE9F041184E0F4663
:100F70000446F5683068001D00F054FD38B930684B
:100F800090F82C1001208840316981433161601C48
:100F900007D137B13168BDE8F0410E48091D00F0B6
:100FA00079BD30682C44AC424460316805D2B06BE6
:100FB000BDE8F041091D00F055BD706B091D00F042
:100FC00051FDB06A844200D2B462BDE8F0810000F5
:100FD000400000208C0400202DE9F041054600F07F
:100FE00065FD2D4EB068401CB06030682B4F10B1CD
:100FF000706930B32BE03560B068012827D1002438
:1010000004EB840007EB800000F01EFD641C202C24
:10101000F6D3234800F018FD2148143000F014FDE9
:101020001F48283000F010FD1D483C3000F00CFD3A
:101030001B48503000F008FD194870631430B0634D
:1010400005E03068E96AC06A884200D83560706A95
:101050000121401C70626864E86A32698140114372
:10106000316100EB800007EB8000291D00F012FDCC
:1010700000F058FD706900280CD03068E96AC06A39
:10108000884207D207494FF080500860BFF34F8F66
:10109000BFF36F8FBDE8F08140000020BC0100204D
:1010A0003C04002004ED00E010B500F0FFFC0E4C05
:1010B0002068A0B90D4800F0C7FC0C48143000F0BF
:1010C000C3FC0A48E0601430206100221021052092
:1010D00001F074F8206010B105A100F0F9FDBDE841
:1010E000104000F01FBD00007C000020A004002084
:1010F000546D72510000000070B5124E124D1CE08C
:1011000000F0C4FF306820B1002401F07BFCA4B9DA
:1011100001E00124F9E700F0C9FCF068C468201D73
:1011200000F080FCA868401EA8606868401E6860E7
:1011300000F0F8FC204600F052F868680028DFD183
:1011400070BD0000780400204000002030B4026C24
:101150000B46002A0BD0C1681144C1604468A1420B
:1011600001D30168C16030BC1846FFF74BB930BCF1
:1011700070472DE9F041856B174604460026026C46
:1011800082B1C7B1E068FFF73DF9E168206C091A48
:10119000E1602268914202D26168081AE060022F81
:1011A00016D017E02068A8B9606801F085FB0646F4
:1011B000002060600EE0A068FFF724F9216CA068B1
:1011C0000844A0606168884204D32068A06001E000
:1011D00005B16D1E6D1CA5633046BDE8F08110B5EC
:1011E0000446006B00F0D0FC2046BDE8104000F043
:1011F000CBBC000010484FF4A041420706D0C01DF0
:101200000D4920F00700411AC1F5A0410B4A002307
:101210000144C2E900030839103A21F007011160C6
:101220004B600B600B1AC0E9001393604FF0004055
:101230005360D06070470000C8040020A000002068
:10124000074E4FF08054074DFFF756FF30680128D6
:10125000FAD92C60BFF34F8FBFF36F8FF4E7000014
:10126000BC01002004ED00E02DE9F047DDE9098430
:101270000E461746824691009946089DA522206B8E
:10128000FFF705F96FF00301206B01EB87010844BC
:1012900020F00707780705D040F22B3219A11EA0D5
:1012A000FFF70AF800202218315C82F83410315C14
:1012B00011B1401C1028F6D3002684F84360202D7D
:1012C00000D31F25E562C4E91356201D00F0C7FBBB
:1012D00004F1180000F0C3FB2461C5F12000646232
:1012E000A061666584F858604A465146384600F069
:1012F00003FB2060B8F1000F01D0C8F80040BDE842
:10130000F08700002E2E5C4672656552544F535C88
:101310007461736B732E63004572726F723A25733A
:101320002C25640D0A00000030B5114900E011467B
:101330000A688242FBD34B685C18844203D1406840
:1013400018444860084643681C18944209D1084C68
:10135000103C2468A24209D052681A4442600A68CC
:1013600012680260814200D0086030BD0460F9E775
:10137000A000002070B5002441600B4D0061914237
:1013800006D8D11A8269914206D2011D286907E068
:101390009A4203D2994201D3012403E0011DE86877
:1013A00000F060FB204670BD7C00002010B50446B4
:1013B00000F07CFBA06B20B1002400F0B3FB2046C2
:1013C00010BD0124F9E700002DE9F34100980F4614
:1013D0000026846C2CB940F6CE1216A11AA0FEF796
:1013E0006BFFA06BE16B884205D340F6CF1211A1D1
:1013F00015A0FEF761FFA06BE16B88420CD294F957
:1014000045503A4669462046FFF7B3FE0646681C3B
:1014100005D06D1C84F845503046BDE8FC81606AFB
:101420000028F9D004F1240001F0A0FA0028F3D03C
:101430000126F1E72E2E5C4672656552544F535CCF
:1014400071756575652E63004572726F723A25730A
:101450002C25640D0A000000F8B5054614480E4618
:10146000C068C068C468201D00F0DCFAE06901288B
:1014700017D1A0692B46411932462046FFF77AFF63
:1014800078B100200346014600902A46204601F02C
:101490009FFB30B907494FF4027201F11800FEF7C3
:1014A0000BFF616A01B02046BDE8F040084700002C
:1014B0007C000020342B000870B586B02F4E53E01E
:1014C0000198002806DADDE90301029A90470198A5
:1014D000002849DB039C606910B1201D00F0A2FACE
:1014E00005A800F0A7F8054601980A283CD2DFE8D5
:1014F00000F00505053B273805053B270298A16943
:10150000034601442A462046FFF734FF00282BD02B
:10151000616A20468847E069012825D100200090B3
:101520000298A169002342181946204601F050FB99
:10153000D0B940F2213212A117A0FEF7BDFE13E090
:101540000298A06128B94FF44E720DA112A0FEF7C7
:10155000B3FEA0692B4641191A462046FFF70AFF41
:1015600002E0204600F010FB00231A4601A9306873
:1015700000F060FE0028A3D106B070BD7C00002002
:101580002E2E5C4672656552544F535C74696D65CE
:1015900072732E63000000004572726F723A2573F9
:1015A0002C25640D0A000000F8B50D46064600F033
:1015B0006DFD684600F03EF80446009810B101F059
:1015C00021FAF8BD1148ADB101690968D9B100250A
:1015D000311B2A46006800F08DFB01F013FA002849
:1015E000EFD10B494FF080500860BFF34F8FBFF32E
:1015F0006F8FF8BDA642EBD801F004FA21463046C1
:10160000FFF72AFFF8BD0125E2E700007C0000207B
:1016100004ED00E00648416B096829B1416BC968D7
:10162000C9684968816270474FF0FF31FAE70000EE
:101630004000002070B5054601F0C4F8064E04468F
:10164000B068844203D200F009F8012000E00020D5
:1016500028602046B46070BD7C000020F8B5184EAC
:1016600026E0C068C4680568201D00F0DBF9616AE7
:1016700020468847E06901281AD1A0692844A84279
:1016800006D924616060211DF06800F0EBF90FE0DD
:1016900000200346014600902A46204601F098FAB1
:1016A00030B9084940F2923201F11800FEF704FE09
:1016B000F06801680029D4D13169C6E90310F8BD8A
:1016C0007C000020342B000808484068401C04D0EF
:1016D000F42207A111A0FEF7EFFD502080F311883E
:1016E000BFF34F8FBFF36F8FFEE70000A80000200D
:1016F0002E2E5C4672656552544F535C706F727447
:1017000061626C655C525644535C41524D5F434D7F
:10171000335C706F72742E63000000004572726F4C
:10172000723A25732C25640D0A000000084CE0680D
:10173000016839B1002139B10020FFF735FFFFF70B
:10174000BBFEF4E70121F6E7C0680068F5E700009A
:101750007C0000202DE9F041044600F0A7F994F93F
:10176000455004F1240610E0A06C20B10021204671
:10177000FFF72AFE04E0606A48B1304601F0F6F84F
:1017800008B100F075FB6D1E6DB2002DECDC4FF062
:10179000FF3684F8456000F0C5F900F087F994F948
:1017A000445004F1100709E0206948B1384601F0BF
:1017B000DDF808B100F05CFB6D1E6DB2002DF3DCAE
:1017C00084F84460BDE8F04100F0ACB92DE9F04187
:1017D0000546002600F05AFC324F386808B9FFF77A
:1017E00009FDF86805424FD1002D4DD00835680736
:1017F0000BD005F00700C0F108000544680704D0CD
:10180000BF2229A132A0FEF757FD002D3CD07868F9
:10181000854239D8234910310846046801E0214641
:1018200004466068A84202D220680028F7D13868D0
:10183000B846844228D00E68206808606068083680
:10184000401B10280ED96719780704D0EC2216A186
:101850001FA0FEF731FD6068401B78603846656068
:10186000FFF762FD6168D8F804004246401AC8F8E4
:101870000400D8F80830984200D29060D8F80C00E4
:1018800001430020C4E9000101F0BCF8700705D055
:101890004FF4967204A10EA0FEF70EFD3046BDE88F
:1018A000F0810000900000202E2E5C46726565528B
:1018B000544F535C706F727461626C655C4D656D02
:1018C0004D616E675C686561705F342E6300000077
:1018D0004572726F723A25732C25640D0A00000060
:1018E0000449086818B10868026D521C026508684E
:1018F000704700004000002010B5031F4FF08074B7
:101900001C601B1F21F001011960191F024B0B60A5
:10191000143940380A6010BDC91600081CB500F023
:10192000C5F80F490220CDE90001002332220DA1A4
:101930000F4800F00DFF0A490320091DCDE9000101
:10194000002332220BA10E4800F002FF0448001FC2
:10195000006800F027FABDE81C4000F0E3B8000082
:10196000040000206C6564305F7461736B000000DC
:10197000C90E00086C6564315F7461736B00000010
:10198000E50E000870B5054686B0012144F204005A
:10199000FFF70EF84FF40070ADF8100003248DF837
:1019A000124018201D4E8DF8130004A93046FEF792
:1019B000C7FE3015ADF8100004208DF8130004A9FF
:1019C0003046FEF7BDFE25208DF814008DF8154039
:1019D0008DF8164001208DF8170005A8FEF7A0FF2E
:1019E0000020ADF80400ADF80600ADF80800ADF831
:1019F0000C000C200A4CADF80A0000956946204600
:101A0000FFF7D6F9012240F225512046FFF7B7F93A
:101A100001212046FFF78AF906B070BD0008014099
:101A200000380140D0E9013201699A60D0E9012310
:101A30005A604A68824201D182684A60002202618B
:101A40000868401E0860704700F108014FF0FF323F
:101A5000C0E90112C16001610021016070470021ED
:101A60000161704730B50C68621C02D000F10802B9
:101A700002E0026904E01A4653681D68A542FAD9DB
:101A800053684B6099608A60516008610168491C25
:101A9000016030BD42684A6093688B60936859600A
:101AA000916008610168491C01607047502080F313
:101AB0001188BFF34F8FBFF36F8F09494868401CEF
:101AC000486001280AD10748006810F0FF0F05D0D0
:101AD0004FF4BD7204A10FA0FEF7EEBB70470000EB
:101AE000A800002004ED00E02E2E5C4672656552D1
:101AF000544F535C706F727461626C655C525644F3
:101B0000535C41524D5F434D335C706F72742E6372
:101B1000000000004572726F723A25732C25640D27
:101B20000A00000010B5084C606828B940F2811224
:101B300006A111A0FEF7C0FB6068401E606001D1E5
:101B400080F3118810BD0000A80000202E2E5C46F6
:101B500072656552544F535C706F727461626C654C
:101B60005C525644535C41524D5F434D335C706F41
:101B700072742E63000000004572726F723A257312
:101B80002C25640D0A00000070B500282AD0164DDF
:101B9000A0F108046068E968084205D14FF4A0721A
:101BA00012A11CA0FEF788FB206828B140F2411268
:101BB0000EA118A0FEF780FB6068E968084211D00A
:101BC0002268002A0ED18843606000F05FFA6068E6
:101BD0006968084468602046FFF7A6FBBDE87040CE
:101BE00000F010BF70BD0000900000202E2E5C465B
:101BF00072656552544F535C706F727461626C65AC
:101C00005C4D656D4D616E675C686561705F342E1B
:101C1000630000004572726F723A25732C25640DC3
:101C20000A00000006484FF47A710068B0FBF1F139
:101C30004FF0E020491E416107210161704700001B
:101C40000C00002010B5FEF711FB104C10280CD32F
:101C500000F1E02090F8F0032178884205D24FF49B
:101C60002A720BA115A0FEF727FB18480068A1688F
:101C700000F4E060884207D9BDE810404FF42E72AE
:101C800003A10EA0FEF718BB10BD0000A8000020A5
:101C90002E2E5C4672656552544F535C706F7274A1
:101CA00061626C655C525644535C41524D5F434DDA
:101CB000335C706F72742E63000000004572726FA7
:101CC000723A25732C25640D0A0000000CED00E02B
:101CD00010B5074B002253F832401CB1521C082AA1
:101CE000F9D310BD43F8321003EBC201486010BDB8
:101CF0007C01002070B515460E460446FFF7D6FE5F
:101D000094F944100020491C01D184F8440094F94E
:101D10004510491C01D184F84500FFF703FFA06B73
:101D200028B92A46314604F1240000F0D1F82046B3
:101D3000BDE87040FFF70EBD10B5040012D00E498B
:101D4000096B29B140F2CF420CA111A0FEF7B4FA01
:101D500000F09CF900212046FFF706F900F052FE42
:101D6000002807D10E494FF080500860BFF34F8F15
:101D7000BFF36F8F10BD0000400000202E2E5C4688
:101D800072656552544F535C7461736B732E6300BC
:101D90004572726F723A25732C25640D0A0000009B
:101DA00004ED00E070B50446FFF780FE234D04B952
:101DB0002C68201DFFF736FE58B9E06A204A00EB78
:101DC000800152F8211021B90121814028698843FE
:101DD0002861A06A18B104F11800FFF723FE686AB1
:101DE000401C68622868844207D1211D1548FFF70E
:101DF00051FE6868401C686007E0A868401EA86043
:101E00002046FFF7ECF9FFF705FCFFF78BFE68694A
:101E1000002812D0286884420FD1286B28B140F2E4
:101E2000654209A10DA0FEF747FA10494FF0805016
:101E30000860BFF34F8FBFF36F8F70BD400000206D
:101E4000BC010020780400202E2E5C46726565528D
:101E5000544F535C7461736B732E63004572726FE1
:101E6000723A25732C25640D0A00000004ED00E091
:101E700001490120C86170474000002070B50D463F
:101E8000040005D140F6063207A10CA0FEF714FAB3
:101E90000E48016820461831FFF7E4FD2846BDE8EA
:101EA00070400121FFF760B82E2E5C4672656552C6
:101EB000544F535C7461736B732E63004572726F81
:101EC000723A25732C25640D0A00000040000020A2
:101ED00070B514460E46050005D140F6313209A111
:101EE0000DA0FEF7E9F91048016828461831FFF700
:101EF000D1FD0CB14FF0FF3621463046BDE87040B1
:101F0000FFF732B82E2E5C4672656552544F535C13
:101F10007461736B732E63004572726F723A25732E
:101F20002C25640D0A0000004000002070B504005C
:101F300039D01D4DE06A2968C96A884233D2A06948
:101F4000002804DB2868C06AC0F12000A061E06AB4
:101F5000164E00EB8000616906EB800081421FD1C4
:101F6000201DFFF75FFD012150B9E06A00EB800200
:101F700056F8222022B92A6901FA00F082432A6128
:101F80002868C06AE0622A6981401143296100EB38
:101F9000800006EB8000211DBDE87040FFF77ABD90
:101FA0002868C06AE06270BD40000020BC010020CB
:101FB00010B5040005D140F6C13205A109A0FEF715
:101FC0007BF90C48016A2160C068606010BD0000A8
:101FD0002E2E5C4672656552544F535C7461736B70
:101FE000732E63004572726F723A25732C25640D4F
:101FF0000A000000400000201CB517480024CDE96D
:1020000000402346822215A1164800F0A1FB0128BA
:1020100003D100F0A3FD01280AD0401C1BD102B05F
:1020200040F28472BDE810400FA114A0FEF744B93D
:10203000502080F31188BFF34F8FBFF36F8F064896
:102040004FF0FF312C38816201214161C460BDE84D
:102050001C4000F061B81CBD6C00002049444C4598
:1020600000000000411200082E2E5C467265655289
:10207000544F535C7461736B732E63004572726FBF
:10208000723A25732C25640D0A0000000248016B8A
:10209000491C0163704700004000002070B5134DDB
:1020A000286B10B10120E86170BD0020E86128694B
:1020B0000F4EB0FA80F0C0F11F0000EB800456F81C
:1020C000240028B940F6F6220AA10FA0FEF7F4F882
:1020D00006EB840000F108024168496841609142C2
:1020E00001D149684160C868286070BD4000002087
:1020F000BC0100202E2E5C4672656552544F535C25
:102100007461736B732E63004572726F723A25733C
:102110002C25640D0A0000001CB51A4908780190AE
:10212000FF20087008788DF800009DF80000164A1E
:1021300000F0500010700720906007E09068401E8B
:1021400090609DF8000040008DF800009DF80000B0
:102150000006F3D4107A000200F4E0609060019869
:1021600008700A48016841F470010160016841F09B
:1021700070410160FFF756FD00205060FEF740F807
:1021800000201CBD00E400E0A800002020ED00E0DD
:1021900010B5502080F31188BFF34F8FBFF36F8FBE
:1021A00000F016FB18B104494FF080500860002081
:1021B00080F3118810BD000004ED00E02DE9F0412E
:1021C00017460E46050005D14FF4C47210A115A0A4
:1021D000FEF772F8BEB105FB06F05430FFF7F6FAD1
:1021E00004000ED004F154007EB12060C4E90F5603
:1021F0002046012100F0E0F884F8507000212046CC
:10220000A164BDE8F0810020E7E72460EEE700006C
:102210002E2E5C4672656552544F535C7175657520
:10222000652E63004572726F723A25732C25640D1A
:102230000A0000002DE9FF4F83B09B468A46040048
:102240004FF0000605D140F2DC4251A155A0FEF747
:1022500033F8BAF1000F07D1206C28B140F2DD420B
:102260004BA150A0FEF728F800F09EFA38B9059867
:1022700028B14FF49C6246A14AA0FEF71DF84FF02A
:1022800000094FF08057DFF82C81FFF70FFCA56B9A
:1022900045B351462046E668FEF758FFBBF1000FF4
:1022A00013D0E660606A50B104F1240000F05EFBD8
:1022B00028B1C8F80070BFF34F8FBFF36F8FFFF7DF
:1022C00031FC012007B0BDE8F08F6D1EA5632068CA
:1022D00010B9FFF705FB606020690028EFD004F11A
:1022E0001000E3E7059808B11EB106E0FFF71AFCFD
:1022F00027E06846FFF75CFE0126FFF713FCFFF7B7
:10230000C5FEFFF7D3FB94F94400401C01D184F8CB
:10231000449094F94500401C01D184F84590FFF7A2
:1023200001FC05A9684600F0CFF9002820460AD034
:10233000FFF710FA00F066FB2046FFF737F8002899
:10234000A3D00020BEE7FFF731F8D8B1206830B93C
:10235000FFF7ACFB6068FFF7E9FDFFF7E3FB04F173
:1023600024000599FFF78AFD2046FFF7F3F900F0F6
:1023700049FB002889D1C8F80070BFF34F8FBFF325
:102380006F8F82E72046FFF7E5F900F03BFB7CE723
:102390002E2E5C4672656552544F535C717565759F
:1023A000652E63004572726F723A25732C25640D99
:1023B0000A00000004ED00E070B50D46040005D1F0
:1023C00040F21B121CA121A0FDF776FFFFF76EFB68
:1023D000D4E90F20216802FB001161600021A16394
:1023E0002168A1600A46D4E90F01401E00FB0121CB
:1023F000E16021464FF0FF3001F8440F487004F1CE
:1024000010004DB1FFF720FB04F12400FFF71CFB87
:10241000FFF788FB012070BD21690029F8D000F08A
:10242000A5FA0028F4D00D494FF080500860BFF3A2
:102430004F8FBFF36F8FEBE72E2E5C4672656552B0
:10244000544F535C71756575652E63004572726FEC
:10245000723A25732C25640D0A00000004ED00E09B
:102460002DE9FF4F83B099468B4604004FF00006DC
:1024700005D140F2D92252A156A0FDF71DFFBBF1B4
:10248000000F07D1206C28B140F2DA224CA151A0F4
:10249000FDF712FFB9F1020F08D1E06B012805D05A
:1024A00040F2DB2246A14BA0FDF706FF00F07CF9CD
:1024B00038B9059828B140F2DE2241A145A0FDF7C8
:1024C000FBFE4FF0000A4FF08057DFF81881FFF74E
:1024D000EDFAA06BE16B884206D3B9F1020F03D08D
:1024E000059800B316B325E04A4659462046FEF744
:1024F00040FEA16C21B149462046FEF765FF05E08C
:10250000616A19B104F1240000F030FA28B1C8F86A
:102510000070BFF34F8FBFF36F8FFFF703FB0120F6
:1025200007B0BDE8F08FFFF7FDFA21E06846FFF73E
:102530003FFD0126FFF7F6FAFFF7A8FDFFF7B6FA11
:1025400094F94400401C01D184F844A094F945005A
:10255000401C01D184F845A0FFF7E4FA05A96846BC
:1025600000F0B2F830B12046FFF7F4F800F04AFA74
:102570000020D5E7FFF79AFAA06BE16B884201D102
:10258000012500E00025FFF7CDFA95B104F1100018
:102590000599FFF773FC2046FFF7DCF800F032FAEC
:1025A000002894D1C8F80070BFF34F8FBFF36F8F2E
:1025B0008DE72046FFF7CEF800F024FA87E7000009
:1025C0002E2E5C4672656552544F535C717565756D
:1025D000652E63004572726F723A25732C25640D67
:1025E0000A00000004ED00E02DE9F047984615468A
:1025F0008946040005D140F29F322AA12EA0FDF7A2
:102600005BFEB9F1000F07D1206C28B14FF468725E
:1026100024A129A0FDF750FEB8F1020F08D1E06B0C
:10262000012805D040F2A1321EA123A0FDF744FEEF
:10263000FFF708FB5020EFF3118780F31188BFF3F9
:102640004F8FBFF36F8FA06BE16B884207D3B8F158
:10265000020F04D0002087F31188BDE8F08794F9B9
:102660004560424649462046FEF783FD701C04D073
:10267000761C84F845600120EDE7A06C012620B1AE
:1026800041462046FEF7A0FE06E0606A0028F2D030
:1026900004F1240000F06AF90028ECD0002DEAD003
:1026A0002E60E8E72E2E5C4672656552544F535CEF
:1026B00071756575652E63004572726F723A257388
:1026C0002C25640D0A00000070B50D46040005D1EC
:1026D00040F6CB3214A119A0FDF7EEFD2DB940F65E
:1026E000CC3211A115A0FDF7E7FDFFF7DFF9174A7E
:1026F000D06829684B1C0FD02368126A934202D01D
:10270000626882420AD96268801A884206D2081A30
:1027100028602046FFF74CFC002400E00124FFF76E
:1027200001FA204670BD00002E2E5C46726565528F
:10273000544F535C7461736B732E63004572726FF8
:10274000723A25732C25640D0A0000004000002019
:102750002DE9FF5F8346DDE90E87994616468A46D6
:102760009000FFF733F805001AD05C20FFF72EF831
:10277000040012D025630021CDE90241CDE9008794
:102780004B46324651465846FEF76EFD2046FEF750
:1027900023FC012004B0BDE8F09F2846FFF7F4F9C0
:1027A0004FF0FF30F6E700000548416919B1006BB2
:1027B00018B10020704701207047022070470000C8
:1027C000400000200148C068704700004000002021
:1027D0002DE9F0412D4F0026386B40B1B869401CFF
:1027E000B861F86900B101263046BDE8F081FD68A6
:1027F0006D1CFD6011D1786B006828B140F6D912CC
:1028000023A128A0FDF758FD786BB96B7963B863F5
:10281000386A401C3862FEF7FDFEB86ADFF8948023
:10282000854209D3786B006880B1786BC068C46852
:10283000606885420DD2B8623868C06A00EB8001DA
:1028400058F821000128CCD90126CAE74FF0FF3003
:10285000F1E7201DFFF7E6F8A06A18B104F11800AF
:10286000FFF7E0F8E06A01213A69814011433961DC
:1028700000EB800108EB8100211DFFF70BF9E06AF6
:102880003968C96A8842CDD30126CBE740000020D1
:102890002E2E5C4672656552544F535C7461736BA7
:1028A000732E63004572726F723A25732C25640D86
:1028B0000A000000BC01002070B504004FF00006C3
:1028C0003CD01F4D2868844205D040F6C7621DA148
:1028D00021A0FDF7F1FC206D28B940F6C96219A1CD
:1028E0001DA0FDF7E9FC206D401E2065E26CE16A49
:1028F000914223D010BB201DFFF794F81A49012202
:1029000050B9E06A00EB800351F8233023B92B69FA
:1029100002FA00F083432B61E06CE062C0F120001A
:10292000A061E06A2B6982401A432A6100EB8000B3
:1029300001EB8000211DFFF7ADF80126304670BD88
:10294000400000202E2E5C4672656552544F535C49
:102950007461736B732E63004572726F723A2573E4
:102960002C25640D0A000000BC0100202DE9F04177
:10297000C068C4682CB940F6613216A11AA0FDF7F0
:102980009BFC04F118000746FFF74CF81A4D286B22
:10299000012660B139461948FFF77CF8E06A2968DA
:1029A000C96A884213D90120EE61BDE8F081201D7B
:1029B000FFF738F8E06A2A6906FA00F11143296145
:1029C0000F4900EB800001EB8000211DE4E70020AF
:1029D000EBE700002E2E5C4672656552544F535C47
:1029E0007461736B732E63004572726F723A257354
:1029F0002C25640D0A000000400000206404002023
:102A0000BC0100202DE9F0472B4D00242746286B00
:102A100028B94FF4FD6229A12DA0FDF74DFCFFF769
:102A200045F8286B401E2863286BE8BBA8682C4932
:102A30000126C8B3A1F52A798846D8F80010E9B173
:102A4000D8F80C00C46804F11800FEF7EBFF201D55
:102A5000FEF7E8FFE06A2A6906FA00F111432961EE
:102A600000EB800109EB8100211DFFF713F8E06AFC
:102A70002968C96A8842E0D3EE61DEE70CB1FEF74F
:102A8000C9FDAC693CB1FFF7A3FE00B1EE61641E65
:102A9000F9D10020A861E86930B11249012738074F
:102AA0000860BFF34F8F00E001E0BFF36F8FFFF7C7
:102AB00039F83846BDE8F087400000202E2E5C46ED
:102AC00072656552544F535C7461736B732E63006F
:102AD0004572726F723A25732C25640D0A0000004E
:102AE0006404002004ED00E02DE9F0470746994614
:102AF00016460D462C20DDF820A0FEF767FE0400E8
:102B000014D0B8464F46D1462DB94FF4C67209A12C
:102B10000EA0FDF7D1FBFEF7C7FA04F11801C4F8C7
:102B2000008081E8E002201DFEF799FF2046BDE805
:102B3000F08700002E2E5C4672656552544F535C40
:102B400074696D6572732E63000000004572726FC8
:102B5000723A25732C25640D0A0000001CB5002470
:102B6000FEF7A2FA0C48006868B10B491F20091D46
:102B7000CDE9000100234FF4827208A10948FFF754
:102B8000E7FD040005D140F2331207A10CA0FDF7C8
:102B900093FB20461CBD00007C000020546D722079
:102BA000537663002D1700082E2E5C467265655221
:102BB000544F535C74696D6572732E63000000009E
:102BC0004572726F723A25732C25640D0A0000005D
:102BD0002DE9FF47DDF830A0994690460D460600E6
:102BE0004FF0000705D14FF4D37212A117A0FDF7E3
:102BF00063FB1A4C206880B1CDE900580296062D7F
:102C000011DAFFF7D1FD02284FF0000309D00022AE
:102C100069462068FFF724FC074604B03846BDE843
:102C2000F0875246F4E700234A466946FFF7DCFC8A
:102C3000F2E700002E2E5C4672656552544F535CDD
:102C400074696D6572732E63000000004572726FC7
:102C5000723A25732C25640D0A0000007C000020C8
:102C6000802C000800000020B40000006C01000867
:102C7000342D0008B4000020745A000088010008B8
:102C800000000000000000000000000000A24A0454
:102C9000000000000000000001020304060708090C
:102CA0000000000000000000000000000204060810
:102CB00000000000010203040102030406070809E2
:102CC0000000000000000000000000000000000004
:102CD00000000000000000000000000000000000F4
:102CE00000000000000000000000000000000000E4
:102CF00000000000000000000000000000000000D4
:102D000000000000000000000000000000000000C3
:102D100000000000000000000000000000000000B3
:102D2000000000000000000000000000AAAAAAAAFB
:042D3000000000009F
:040000050800027578
:00000001FF
